:020000040800F2
:1000000028070020D5000008E5110008431000086B
:1000100000000000000000000000000000000000E0
:100020000000000000000000000000009B14000819
:100030000000000000000000991400089D14000852
:100040000501000800000000050100080501000886
:100050000501000805010008050100080501000868
:100060000000000005010008050100080501000866
:100070000501000805010008050100080000000056
:100080000501000800000000000000000501000854
:100090000000000005010008050100080501000836
:1000A0000000000005010008000000000501000834
:1000B000050100080000000000000000FD24000809
:1000C0000348854600F0ACF800480047AD2700081B
:1000D000280700200C4880F308880C480168090EA6
:1000E0000B4A914205D10B480B4901600B480C4962
:1000F00001600C4880470C480047FEE7FEE7FEE73A
:10010000FEE7FEE7FEE700002807002004000000ED
:100110001F00000018100240010000000000014014
:100120000000000001150008C100000830B50B46B2
:10013000014600202022012409E00D46D5409D42C1
:1001400005D31D469540491B254695404019154647
:10015000521E002DF1DC30BDF0B51FB40646002064
:1001600082B005464024019100901BE0019922468F
:100170000F46304600F020F8049A059B801A9941FA
:1001800010D310461946224600F039F8361A8F412E
:100190000197224601200021009F00F030F8381816
:1001A0004D4100902046641E0028DFDC019B009832
:1001B0002946324607B0F0BD10B5202A04DB0846B8
:1001C000203AD040002110BD0B46D340D04020241F
:1001D000A21A91400843194610BDD2B201E0027044
:1001E000401C491EFBD270470022F6E710B51346AB
:1001F0000A4604461946FFF7F0FF204610BD10B529
:10020000202A04DB0146203A9140002010BD914095
:1002100020239C1A0346E3401943904010BD000080
:10022000064C0125064E05E0E36807CC2B430C3C49
:1002300098471034B442F7D3FFF746FFE827000889
:10024000082800087047000070B5044600F0BEF8AA
:100250000546601C02D004480078241800F0B6F867
:10026000401BA042FAD370BD04000020F8B5002363
:100270008DE001249C40A44622407DD04C68022C95
:1002800001D0122C0CD1DC08A40027183C6A5D07B1
:10029000ED0E0F26AE40B4430E69AE4026433E62DB
:1002A00005685E000324B4400F79A543BF07BF0F64
:1002B000B7402F4307604D68012D05D0022D03D0B4
:1002C000112D01D0122D0ED18568CF68A543B740FE
:1002D0002F43876047686546AF430D79ED06ED0F04
:1002E0009D403D434560C568A5438C68B4402C43A0
:1002F000C4604C68E40049D5284CA5690126354303
:10030000A561A4699D0834400094254CAD002F19C7
:10031000BC689D072E0F0F25B540AC430925ED069F
:10032000A84201D100250FE01E4DA84201D10125B0
:100330000AE01D4DA84201D1022505E01B4DA8424F
:1003400001D1032500E00525B5402543BD60184CCB
:1003500025684E689543F60300D51543256065680A
:100360004E689543B60300D515436560A5684E6891
:100370009543F60202D500E008E01543A560E56864
:100380004E689543B60200D51543E5605B1C0A68CC
:100390001446DC4000D06CE7F8BD000000100240BD
:1003A000000001400004004800080048000C00481C
:1003B000000401400069084000D001207047002A75
:1003C00001D08161704781627047000001488068F8
:1003D00070470000040000200248816802788918F4
:1003E000816070470400002010B5064801681022A3
:1003F00011430160002000F007F800F027F800200A
:1004000010BD00000020024070B504460D4D7D2057
:100410002978C000FFF78AFE01460B480068FFF705
:1004200085FE00F027FD002809D1042C07D2002208
:100430002146401E00F01EF800206C6070BD0120B7
:1004400070BD0000040000201000002008B508481E
:100450008169012211438161816911400091C26962
:1004600001040A43C261C0690840009008BD000051
:100470000010024010B502F0B1F810BD70474A01FB
:10048000121810B5FF30FF300230D26B006F01F050
:1004900094FA10BD4A01121810B5FF30FF32FF3038
:1004A00001320230D26B006F01F0EAFA10BD70B574
:1004B0000A074368120F9A4201D9012070BD4B0709
:1004C000CD095B0F5901091801220024002D02D02B
:1004D00028314A7002E0FF3129314C708C700B706A
:1004E00011235B01C5182B7A012B06D02A720068F4
:1004F00001F0BCFE2C72002070BD022070BDF8B56A
:100500004F07CD097F0F7901091801260024002D1E
:1005100002D028314E7002E0FF3129314C700F704B
:100520000A61CB704A78002A00D0CF81022B00D11B
:100530000C711122520185182A7A012A06D02E72D6
:10054000006801F067FD20462C72F8BD0220F8BD5E
:1005500070B54D070C466D0F69010918FF3129313F
:100560008B614A610022CA614A700D70620700689F
:1005700001F0D6FE002070BDF8B504464A07406879
:10058000520F0D46824201D90120F8BDE90900272A
:100590000120002904D0510109192831487004E0D4
:1005A00069010919FF3129314F7088700A701122D1
:1005B0005201A618327A012A06D03072206801F062
:1005C00093FE680702D007E00220F8BD232109014D
:1005D0006118206801F048FE37720020F8BD70B540
:1005E0004D070C466D0F690109180B64CA630022A0
:1005F0004A64012228314A700D706207006801F0D8
:100600008FFE002070BDF8B50446006801F07EFF43
:10061000000402D5204600F0E7FD206801F076FFD7
:1006200040050DD520684030818801229202914317
:100630008180204600F0AAF80021204600F0D8F87A
:10064000206801F063FF400406D5206840308188AF
:100650000122920391438180206801F057FF8004BA
:1006600006D5206840308188012252039143818061
:10067000206801F04BFFC104132040010426082725
:10068000251800291CDA206840300188B143018018
:10069000206840300188B94301802878012805D1BD
:1006A0000020287001462046FFF7E8FE204600F0B3
:1006B00081F82068403081880122120391438180B3
:1006C000206801F023FF000519D52068403001881B
:1006D000394301802068403081880122D202914351
:1006E000818020684030018831430180206801F01A
:1006F0000DFFC043C00402D5204600F097F82068E3
:1007000001F004FF00060BD520684030818880226C
:1007100091438180287800281ED0204600F086F87A
:10072000206801F0F3FE800509D5206840308188FB
:100730000122520291438180204600F051F8206846
:1007400001F0E4FEC00506D5206840308188FF2214
:10075000013291438180F8BD2068403001883143E7
:1007600001802068403001883943018001202870D1
:1007700020684030808A3C21800808409921890007
:10078000085101212046FFF779FEC9E770B50446FC
:1007900080680125022801D0FFF754FDFF34FF34A3
:1007A00002342946206F01F012FA206F01F0D0F9CF
:1007B00070BD000010B504468069002806D00748C7
:1007C000016906229143016100F06CFEFF34FF34A1
:1007D0000234206F01F0E3F910BD000000ED00E0ED
:1007E000FF3010B5FF300230006F01F0E2F910BDAC
:1007F00010B5112252018418227A012A09D001224F
:10080000227224221154006801F098FE0020207208
:1008100010BD022010BD10B5272109010A5823215F
:1008200009014118104601F0DFF910BD10B504466A
:10083000FF30FF300230006F01F010FAA06900288D
:1008400004D00348016906221143016110BD000074
:1008500000ED00E0F8B505460068394CC00352D5FC
:10086000E0690026C00007D4E16920040143E1618A
:10087000E16901400126009132480168C90510D4A0
:100880000168821511430160FFF7A0FD074604E0EF
:10089000FFF79CFDC01B642824D82A480068C005C7
:1008A000F6D5206A03273F02384020D069683940D6
:1008B00081421CD0206A226AB843012109040A43FC
:1008C0002262226A8A4322622062C0070FD0FFF7A9
:1008D0007DFD009008E0FFF779FD0099411A1A4864
:1008E000814201D90320F8BD206A8007F3D5206A30
:1008F0006968B84308432062002E04D0E1690120F2
:1009000000078143E1612878C00705D0206BA96802
:1009100080088000084320632878800605D5206B76
:1009200010218843E968084320632868800305D5BF
:10093000206B802188432969084320630020F8BD8B
:10094000001002400070004088130000F8B50F4608
:10095000060059D03A4D2868C007C00FB84209D2E6
:10096000286840084000384328602868C007C00F46
:10097000B84249D13068334C81070CD5400704D5C3
:10098000606807210902084360606068F0218843BD
:10099000B168084360603078C00726D070680128CD
:1009A0000ED0216802280ED0890700292CDA616850
:1009B0008908890001436160FFF708FD00900DE0A0
:1009C00021688903F1E78901EFE7FFF7FFFC009950
:1009D000411A1D48814201D90320F8BD60680C21ED
:1009E0000840716889008842EFD12868C007C00FAD
:1009F000B8420BD92868400840003843286028686E
:100A0000C007C00FB84201D00120F8BD30784007C0
:100A100006D56068072109028843F16808436060D1
:100A200000F028F86168094A0906090F515CC840BE
:100A3000074908600020FFF7E7FC0020F8BD000030
:100A4000002002400010024088130000D027000858
:100A5000100000200448054900684968044A490517
:100A6000490F515CC8407047100000200010024040
:100A7000E027000810B513A30FCB88B06C460FC455
:100A800014A30FCB0FC417494B680C201A46024021
:100A90001548042A13D0082A11D19A02120F6C4665
:100AA000A45CC96A04AA0907090F525CD903890F1B
:100AB00000231946FFF750FB214601F069FD08B0FD
:100AC00010BD000002030405060708090A0B0C0DFF
:100AD0000E0F10100102030405060708090A0B0C8B
:100AE0000D0E0F100010024000127A00FEB5040037
:100AF00071D02078DC4DC00749D068680007800FAE
:100B0000012820D068680007800F022804D1686897
:100B1000C003800F022816D0012062680004012A59
:100B200018D08100002A01D0052A17D02A688243F4
:100B30002A60286888432860606800281BD0FFF777
:100B400045FC064613E02868800320D5606800282D
:100B5000CED01CE0296801432960EDE72A680A43EA
:100B60002A60F7E7FFF732FC801B642870D82868FA
:100B70008003F7D50BE0FFF729FC064604E0FFF7FA
:100B800025FC801B6428F1D828688003F7D42078DE
:100B90000126800700283EDA68680007800F13D01E
:100BA00068680007800F022804D16868C003800FBE
:100BB000012809D0E068002828681DD0304328604B
:100BC000FFF704FC07460CE0286880070CD5E068B6
:100BD000012800D108E043E1FFF7F8FBC01B022821
:100BE000C4D828688007F7D52868F8218843216988
:100BF000C900084328600EE0400840002860FFF765
:100C0000E5FB074604E0FFF7E1FBC01B0228ADD877
:100C100028688007F7D42078000722D5E0690028EB
:100C2000686A0ED030436862FFF7D0FB074604E0E5
:100C3000FFF7CCFBC01B022898D8686A8007F7D55D
:100C40000FE0400840006862FFF7C0FB074605E080
:100C50009DE0FFF7BBFBC01B022887D8686A8007AE
:100C6000F7D4207804274007002860DA002001909C
:100C7000E869C00008D4E969B8060143E961E96997
:100C8000014001200091019078480168C90511D404
:100C90000168821511430160FFF798FB009005E0A1
:100CA000FFF794FB0099401A642870D86F480068D9
:100CB000C005F5D5A06801280AD0002801D0052874
:100CC00010D0286A400840002862286AB84301E032
:100CD000286A30432862A068002812D0FFF776FB0C
:100CE00000900AE0286A38432862F1E7FFF76EFBBC
:100CF0000099411A5E48814249D8286A8007F5D593
:100D00000DE0FFF763FB009006E0FFF75FFB009943
:100D1000411A574881423AD8286A8007F5D4019889
:100D2000002804D0E869012109078843E861207898
:100D3000C00635D5606901280CD0401D686B23D0F2
:100D400038436863686B400840006863FFF73EFB08
:100D5000064622E0686B38436863686B304368631B
:100D6000FFF734FB064604E0FFF730FB801B022848
:100D70005BD8686B8007F7D5686BF8218843A16959
:100D8000C900084368630BE0B8436863F4E74CE0CC
:100D9000FFF71CFB801B022847D8686B8007F7D43D
:100DA000206A00285ED069680907890F022942D0AD
:100DB000012636060228286805D0B0432860FFF7D0
:100DC00005FB044633E0B0432860FFF7FFFA07460F
:100DD00004E0FFF7FBFAC01B022826D82868800130
:100DE000F7D4E86AE16A000900010843E862616A31
:100DF000A06A084369687B22D20391430843686074
:100E0000286830432860FFF7E1FA044604E0FFF762
:100E1000DDFA001B022808D828688001F7D521E0F8
:100E2000FFF7D4FA001B022801D90320FEBD286871
:100E30008001F5D416E00128F8D06868E96A032239
:100E4000D203636A02409A420AD10907E26A090F93
:100E5000914205D10F2189040840A16A884201D03E
:100E60000120FEBD0020FEBD0010024000700040C9
:100E700088130000094910B5401E884201D901209D
:100E800010BD074C60610321081F01F0A7FB002083
:100E9000A06107202061002010BD0000FFFFFF00BF
:100EA00000E000E010B5040003D0606F002802D01D
:100EB00007E0012010BD002170200155204600F000
:100EC00027F824206067206801684908490001600C
:100ED000204600F0ABFB0128ECD0606A002802D06D
:100EE000204600F00EFB206841680122D2029143A7
:100EF0004160206881680822914381602068016810
:100F0000012211430160204600F060FB10BD00008B
:100F100010B586B0044614216846FFF765F91349F9
:100F2000206888421FD112488269012189030A433F
:100F3000826182690A4005924269C9000A4342619E
:100F40004069084005900320400200900220019073
:100F5000002002900320039001200490092069469C
:100F6000C006FFF783F906B010BD0000003801404D
:100F700000100240FFB50446406F83B017460D468F
:100F800020285CD1002D0AD0002F08D0A168C00114
:100F9000814207D12069002804D1E80702D001204E
:100FA00007B0F0BD204660300290007C012846D09A
:100FB0000298012101740020E06721206067FFF79B
:100FC00005FA264640360190378277820120A168D3
:100FD0000003814202D12069002802D02F4600255B
:100FE00011E000270FE000228021204600F0C2FB24
:100FF000002815D1002F15D02168387808857F1C6E
:10100000708A401E7082708A019B002806980090AA
:10101000E9D100224021204600F0ACFB002808D096
:101020000320BDE728882168C005C00D0885AD1CD8
:10103000E6E720206067029900200874B0E70220EC
:10104000AEE7FEE7010010B5084809D0012909D034
:10105000022909D0032902D18021FFF7ABF910BD85
:101060001021FAE72021F8E74021F6E700000048C8
:1010700070B500250024AC4202D1E0B2012101E0AC
:10108000E0B2002100F017F8641C032CF3DB00240D
:10109000E0B2FFF7D7FF002805D060002018401904
:1010A000401CC0B270BD641C042CF1DB6D1C032D10
:1010B000E0DB002070BD092310B5DB06002809D055
:1010C00001280AD0022804D10A4608211846FFF751
:1010D00076F910BD0A460221F8E70A460421F5E731
:1010E00010B50023114A002903D00121117050705E
:1010F00018E01078012818D1137051780A2903D20A
:101100000BA001F035FA0DE00A2904D00B2904D018
:101110000C2904D006E008A002E008A000E008A026
:1011200001F026FA0A20FFF78FF810BD000000201A
:101130005B25645D000000005B305D005B445D008A
:101140005B455D0070B586B014216846FFF74CF82A
:1011500015484269012189050A43426142690A40F2
:101160000592426949110A434261406909260840D3
:10117000F606059000220E213046FFF720F90E20DA
:10118000009001200224002501AA31C269463046A0
:10119000FFF76CF8F0200090694601950294304604
:1011A000FFF764F806B070BD0010024010B50C489F
:1011B0000A490160E1214902416000218160C1606A
:1011C00001618161C1610C22016242614162FFF7EC
:1011D00069FE002801D0FFF735F810BD0038014046
:1011E000A402002070470000FEB5044620300190A4
:1011F0003AE18A881607360F24D0B700C15B029106
:10120000090472D5C15B9E4A114080221143C1532B
:1012100070010519FF352935287B002820687DD00D
:1012200029788A00825A520479D55022125ACB006A
:10123000944912185918515A8905890D00916FD097
:101240002A89C6E0D2062DD401888F4A1140012296
:10125000D2031143018020685021095A25462835C0
:101260000A182878C10087480818105A8005800D90
:101270006064E16B0818E06300212046FFF7FFF887
:10128000019800790028B3D0A8690028B0D101984E
:10129000017980200143206840308181019800213C
:1012A0000171E1E02546FF350288293513051DD57A
:1012B000098A09182878C2007248001D1018085AB7
:1012C000232183059B0DEB610901EA8861182068E1
:1012D00001F01FF921680888694A104080221043F4
:1012E00008802046FFF797FABEE099E01104D8D5B0
:1012F0000188634A114080221143018020685021F7
:10130000095A604E08182978361DC9008919405AB3
:1013100083059B0DEB6112D0696902E039E04BE077
:101320005BE000290BD0EA88206801F0F2F8E96957
:1013300068694018686100212046FFF7ABF8206813
:101340005021095A081881192869002807D03E2819
:1013500009D84208C00700D0521C90020BE0088850
:101360004A4A104004E04209C00600D1521E9002D1
:101370000122D2031043088021680888444A1040A3
:1013800001221203504052005040424A104308804C
:101390006AE05021095A3B4B0A1829781B1DC900E5
:1013A000C918515A8905890D009121D0EA886969C7
:1013B000009B01F0AEF81BE05022CB00125A3149DD
:1013C0001218091D5918515A8905890D009104D028
:1013D0006A896969009B01F09CF8297820688A0075
:1013E000815A294B803319402A4B4033194381528B
:1013F000E96900980818E8616869009942186A610B
:10140000AB69002B03D029690098814204D929785F
:101410002046FFF73FF803E029782046FFF798F8C9
:101420000298000620D522687001D15B0019164B86
:1014300019400123DB031943D15321685022525A2A
:101440002830511802780F4BD200D218895A8905DA
:10145000890DC16142695218426183690178002B8C
:1014600020460AD0FFF7BBF82068014640318A8841
:10147000120400D5BDE60020FEBDFFF700F8F3E73B
:101480008F0F0000020400000F8F0000FF83000098
:101490008FBF0000808000007047704710B5FEF7D6
:1014A0009BFF10BD30B595B030216846FEF79CFE1D
:1014B00000240C940D940E94142110A80F94FEF7A0
:1014C00093FE012001900090000409900001022584
:1014D0000A9008950B946846FFF708FB07200C90CC
:1014E0000E9401210D950F940CA8FFF72FFA2804F4
:1014F00010908020149010A8FFF7ACF915B030BD03
:10150000704710B5818CC90707D001684A6801236C
:101510005B049A43836A1A434A60818C890707D522
:1015200001684A6801231B049A43C36A1A434A604C
:10153000818C490707D501684A6801239B049A43B7
:10154000036B1A434A60818C090707D501684A6812
:101550000123DB039A43436B1A434A60818CC9061B
:1015600007D50268916801231B039943836B1943D4
:101570009160818C890607D501688A6801235B0325
:101580009A43C36B1A438A60818C490612D503685B
:101590005A6801210905046C8A4322435A60026C8F
:1015A0008A4207D10268516803235B059943436C63
:1015B00019435160818C090607D501684A680123E7
:1015C000DB04806C9A4302434A6010BDF8B50026E4
:1015D0000446C667FEF7FAFE054620680068124F0B
:1015E000000709D501212B46002249052046009716
:1015F00000F0C0F800280DD12068006840070BD526
:1016000001212B46002289052046009700F0B2F800
:10161000002801D00320F8BD20206067A067603457
:1016200026740020F8BD0000FFFFFF0170B50446DE
:1016300080682169E26908436169002511432268D5
:1016400008431168444B1940014311602168486800
:10165000032212039043E26810434860A169206AA4
:101660002268084391680B231B0299430143916050
:101670003A492068884210D13948006B8007800FB2
:1016800011D0012805D0022805D003280AD1022054
:1016900009E0042007E0082005E03249884201D132
:1016A000002000E010200122E169D2032E4E914279
:1016B00028D1002806D0022807D0042817D00828EF
:1016C00044D11AE0FFF7C6F913E06168274A4808D9
:1016D0008018FEF72BFD80B201461039B14235D893
:1016E0002149491C01400007400F084321E0FFF752
:1016F000C1F9616840004A08EAE7616801224808C8
:101700001204E5E7002806D0022807D0042813D0E9
:1017100008281BD116E0FFF79DF90FE06168144A15
:10172000480811E0FEF702FD80B201461039B142CF
:101730000CD82168C8600AE0FFF79CF961684A0884
:101740001018EFE7616848088018EBE701250020D2
:1017500020666066284670BDF369FFEF00380140DF
:101760000010024000440040EFFF00000024F4009D
:1017700000127A00FFB581B005460F460446603579
:101780000A9E38E0701C36D0FEF720FE0499401AFD
:10179000B04221D8002E1FD02068016849072AD501
:1017A000C069C043000526D401202168C002086238
:1017B00020680168FF22A13291430160206881689E
:1017C00049084900816020206067A067E067002029
:1017D0002874032005B0F0BD20680168FF22A13203
:1017E0009143016020688168490849008160202098
:1017F0006067A067EBE72068C1693846884305D079
:10180000002103988142BDD00020E3E70121F8E7E1
:10181000052210B5D2018218526B52689047002001
:1018200010BD134610B50A46002100F087F90020CC
:1018300010BD134610B50A46002100F018FA00202A
:1018400010BD10B50446802100F0FEF900212046AD
:1018500000F0FAF910BD052110B5CA018218002365
:1018600051611A46194600F069F9002010BD10B503
:101870000524E401022304196361C2611346026274
:101880000A46002100F0F3F9002010BD052210B532
:10189000D20104218218002351611A46194600F032
:1018A000E6F9002010BDF8B50D4604460020694653
:1018B0000880698805200A0AC0012018130000F07A
:1018C0007FFE0844050B184444384144006B237CD8
:1018D00002686946184617E0217C0226406B002901
:1018E00005D0C16A684688470146467039E0816A7A
:1018F000F8E7C9B20B0000F063FE060409101316E6
:101900001928006B426803E0904719E0006B826879
:10191000002A1AD0207C6946F6E7006BC268F7E718
:10192000006B0269F4E7006B4269F1E7006B8269C2
:10193000EEE7217C002908D1406B416B684688475F
:1019400001460EE0217C002904D029462046FFF7FD
:1019500078FFF8BD406B016B684688470722014657
:1019600042706846008800280AD0EA88002A0AD017
:10197000824200D90246684602802046FFF777FF80
:10198000E8880028E5D12046FFF780FFF8BD014632
:101990000020002904D0012901D0022901D0022011
:1019A000704701207047052210B5D2018018006CE5
:1019B000FEF77DFDFFF7EBFF10BDF8B506460520ED
:1019C000C00134181346002908D0606B4269002A10
:1019D00002D0207F03284FD00220F8BD3546606931
:1019E0001435022804D0042839D0002837D03AE032
:1019F0002F69E868B84207D9C01B82B2E86019466F
:101A00003046FFF716FF12E0AD6839462846FEF76C
:101A10008DFB002912D1BD4210D3A06985420DD2A1
:101A2000002211463046FFF704FF0020A06100238A
:101A30001A461946304600F081F814E0606BC16820
:101A4000002904D0207F032801D130468847802117
:101A5000304600F0F9F83046FFF7FDFE03E0802144
:101A6000304600F0F1F815204001301801780129C6
:101A700004D10021017001E0304690470020F8BDFC
:101A800070B505460520C0012B181646002908D060
:101A9000586B8269002A02D0187F03282DD00220BB
:101AA00070BD2C46FF3458695534032802D00528F0
:101AB0001CD024E0E168206981420AD90B1AE36056
:101AC000834200D303469AB231462846FFF7A9FE67
:101AD00015E0586B0169002904D0187F032801D153
:101AE000284688472846FFF7D1FE08E00020014637
:101AF0005861284600F0A8F801E0284690470020E9
:101B000070BD0523DB01CA09C0184906006C090D28
:101B10000818002A01D0203001E0FF302130807AFF
:101B2000704710B51C460523DB01C0181346006C36
:101B30002246FEF7E4FCFFF72AFF10BD10B505248E
:101B4000E4010019006CFEF703FDFFF720FF10BD54
:101B500070B50022044640231146FFF7E2FFE01D66
:101B60004026F930012546668565334600228021EE
:101B70002046FFF7D6FF0520C00166622018A56148
:101B800005770021416161604162816B002904D0C9
:101B9000406B0021426820469047002070BD05211F
:101BA000C9014018017F042901D1417F017700203C
:101BB0007047052110B5C90141180A7F032A04D1D5
:101BC000496BC969002900D08847002010BD017405
:101BD00000207047052210B5D2018018006CFEF776
:101BE00007FEFFF7D4FE10BD70B505465520C000B6
:101BF0002818044600F045F80520C00101212818E6
:101C00004161C18D8161152040012818007AC1060B
:101C1000C90E0AD001290DD0022910D0C109C9016D
:101C2000284600F011F8002070BD2146284600F03B
:101C30008DF8F8E72146284600F0C2F9F3E721467F
:101C4000284600F008F9EEE7052210B5D201801809
:101C5000006CFEF791FCFFF79AFE10BD0521C9014B
:101C60004018017F4177042101770020704710B5AB
:101C70000524E4010019006CFEF7B1FCFFF787FEB4
:101C800010BD0A7802704A784270CB788A781B02BD
:101C9000D21842804B790A791B02D21882808A7945
:101CA000C97909025118C1807047052210B5D201C7
:101CB0008218526B0224002A04D012689047002830
:101CC00000D10024204610BD70B50E4689781E4C08
:101CD00005462170012904D931462846FFF7B1FD98
:101CE00070BD0520C0012818027F022A0AD0032AED
:101CF0000ED031462846FFF7A4FD21782846FFF78D
:101D000087FD70BD002913D00322696002770AE0C5
:101D1000002911D0686888420AD0C1B22846FFF76E
:101D200077FD217869602846FFF7BFFF0228D3D0EE
:101D30002846FFF7ABFD70BD022202772846696096
:101D4000FFF766FDF4E7000014000020F8B500225C
:101D500000920A7860231A400523DB01C518002A87
:101D600007D0202A01D0402A6AD16A6B9268904736
:101D700068E04C7800220126230000F021FC0A3F95
:101D80005A6155610906612C2961FFF78CFD59E004
:101D900004468888002819D1C888002816D14888A8
:101DA000802813D24706287F7F0E03280ED0AF77F6
:101DB00039462046FFF70EFF2046FFF767FD002F4C
:101DC00002D0022028773DE02E773BE0204637E026
:101DD000FFF77AFF36E0CB88012B31D12B7F012B27
:101DE00004D0022B02D0032B2AD104E0826001220E
:101DF0000146083115E00122011D12E02A7F012A67
:101E000003D0022A01D0032A1AD1CA88022A17D184
:101E1000C660696A002901D00321C160014602221F
:101E20000C31FFF724FD0DE0498801290AD16E62CB
:101E30000EE02B7F012B07D0022B05D0032B03D004
:101E4000FFF7FFFC0098F8BD49880129FAD16A62C2
:101E5000FFF71CFDF6E7F8B50A4613780446602044
:101E60001D4605400520C001002709792018002DD6
:101E700009D0202D01D0402D77D1406B11468368C9
:101E8000204698479AE05B069B0F012B07D05378BA
:101E9000002B3BD0012B2BD0032B66D105E0406BF0
:101EA0001146836820469847F8BD007F022802D07B
:101EB00003287FD10BE000297CD080297AD02046EE
:101EC000FFF7C2FE80212046FFF7BEFE76E0508875
:101ED000002809D1002907D0802905D0D088002802
:101EE00002D12046FFF7B0FE2046FFF7CFFC65E0A9
:101EF000007F0228DFD003285CD1508800285DD104
:101F00004806F1D02046FFF74EFDEDE7007F0026A2
:101F1000022802D003284DD116E0002901D08029E3
:101F200048D1C80906D04806400E1421484301197B
:101F3000143106E04806400E142148430119FF31D0
:101F4000553102220E6031E0C8090FD00807000F9A
:101F5000142358430019806900282BD04806400EEE
:101F6000142250430519143511E023E00807000F2F
:101F7000142358430019FF300130806D002819D018
:101F80004806400E142250430519FF3555350029E7
:101F900009D0802907D02046FFF7B3FD002802D0E2
:101FA0000120286000E02E60022229462046FFF72B
:101FB0005EFC03E011462046FFF743FC3846F8BDBF
:101FC00070B505460C4608786021084003D02028EB
:101FD00001D0402818D10520C0012818017F01290F
:101FE00003D0022901D003290ED1217901290BD870
:101FF000406B2146826828469047E188014307D11B
:102000002846FFF743FC03E021462846FFF719FC6A
:10201000002070BDF0B5002294460A789400035B5E
:102020008A4A1340CA78002A62D0012A67D0022A5D
:1020300003D0032A5FD001229446854A13430353F9
:102040000D78AE00845B834B1C402C4314438453B7
:10205000804D0E7B044630354034002E52D00E7831
:10206000B700C65BBE467C4F1E403E437746C65314
:10207000268A0F783618FF00BF190126B602BE194E
:102080000F897F087F003780248A0E782418F60095
:102090003619541134194E897608760026804C780A
:1020A000002C0C7876D0A600845B640404D5845B95
:1020B0006A4F1C403C4384530C78A600845B640642
:1020C00005D5845B624F1C4040373C4384530C78F9
:1020D000A600845B1C40614B1C438453CB78012BCE
:1020E0000B7879D09C00035B2B4020256B40A1E04E
:1020F0000122520201E00322520213439DE7012212
:102100009202FAE74E78002E24D0248A0E78241802
:10211000F60036190124A4023419CE887608760018
:1021200026800C78A600845B640605D5845B1C4081
:10213000474B40331C438453CB78012B05D009789F
:102140008B00C15A2940202444E009788B00C15AF1
:10215000294077E0258A0E782D18F6007619404D33
:102160007519CE88760876002E80248A0D7824187A
:10217000ED002C193A4D0127AD1C65190C69FF03C0
:10218000002C08D03E2C0AD86608E40700D0761C44
:10219000B4020AE021E02C88324E344004E06609A3
:1021A000E40600D1761EB4023C432C800C78A500D6
:1021B000445B640404D5445B1C40284B1C434453DB
:1021C00009788B00C15A254CF13C2140012424039D
:1021D00061406400614035E029E0A600845B64044E
:1021E00004D5845B1D4F1C403C4384530C78A600EF
:1021F000845B640605D5845B154F1C4040373C4327
:1022000084530C78A600845B1C40114B40331C4364
:1022100084530B789C00035B104EF13E3340012643
:102220003603734076007340134303538DE79C00DD
:10223000035B2B401343035309788B00C15A074CAF
:10224000F13C21401143C1526046F0BD8F8900002E
:10225000808000008F8F00008081000080C000001F
:1022600004040000FF8300000020704730B50A7BA3
:10227000002A30D14A78194D002A194B0A7814D017
:102280009400025B520605D5025B2A40144D40358E
:102290002A430253CA78012A1DD009788A00815A3C
:1022A0000E4C30342140202412E09400025B520492
:1022B00004D5025B2A400B4D2A43025309788A0059
:1022C000815A084CF13C2140012424036140640000
:1022D000614019438152002030BD00008F8F000003
:1022E0008080000080C0000010B54A780978094B52
:1022F0008900002A425A03D0074C2240102403E0F0
:10230000064C22400124240362401A43425200201A
:1023100010BD000080800000BF8F00008FBF000054
:10232000F0B50E4605464A782F460023097B403714
:102330003469B069012A04D0A04254D9001BB061AD
:1023400053E0A04202D9001BB06101E00446B36132
:1023500000290DD030788100695A4906398A17D58D
:102360004919C0004118604808180480728917E0B4
:10237000A3B2F2882846716900F0E7F8388A31780C
:102380004019C90009185848001F0818048020E0A7
:102390004919C00041185448001F081804803289A8
:1023A000A3B22846716900F0D0F870784F49002830
:1023B00002D0012806D00CE030788200A85A0840EC
:1023C0004B4904E030788200A85A08404949084344
:1023D000A85230788100685A444A303210401022A6
:1023E0005040202279E00446B3610120C003002957
:1023F00002D0002A1ED02FE0398A32784919D20043
:10240000521839495118002C08D03E2C0AD86008BF
:10241000E20700D0401C8002088054E00A88364B56
:102420001A4004E06209E30600D1521E9202024300
:102430000A8048E0398A32784919D20052182A496C
:10244000091F5118002C0DD03E2C0FD86208E3074D
:1024500000D0521C92020A80717800290DD0012907
:1024600029D030E00A88244B1A4004E06209E306D0
:1024700000D1521E92020243EDE7398A327849199F
:10248000D200521818495218002C08D03E2C0AD8F5
:102490006008E10700D0401C8002108013E0118822
:1024A000154B194004E06109E30600D1491E890279
:1024B0000143118007E0398A48193178C9000918A9
:1024C00009480818048030788100685A094AF13AAE
:1024D000104001221203504052005040044A403A3A
:1024E000104368520020F0BD060400008F8F0000EA
:1024F000C080000080C00000FF83000010B50248CB
:10250000FEF781F810BD00003000002040308088C8
:102510007047801810B5012292025C088018002CC8
:1025200007D002880A70120A4A70801C891C641E37
:10253000F7D1DA0701D00088087010BD002902D158
:1025400080214030818100207047801801225B1C6F
:10255000920210B55B088018002B08D04A780C78DE
:10256000120222430280801C891C5B1EF6D110BD22
:102570000FB410B503A9044B044A029800F060F8A8
:1025800010BC08BC04B018479127000818000020B0
:10259000F8B5040C8BB2264682B25E430D0C104691
:1025A000370C5843360480190021794116466E4392
:1025B000370C36048019794126466E438919F8BDD7
:1025C00030B47446641E2578641CAB4200D21D46AC
:1025D000635D5B00E31830BC184700008307FF22EF
:1025E000DB0E9A408907090E9940002808DB830812
:1025F00009489B001B1818689043084318607047EF
:102600000007000F0838830804489B001B18D8698E
:1026100090430843D861704700E400E000ED00E01B
:1026200002E008C8121F08C1002AFAD1704770479B
:10263000002001E001C1121F002AFBD170470000F9
:10264000FFB58DB00446002506E025280AD0109A73
:102650000F999047641C6D1C20780028F5D12846FE
:1026600011B0F0BD00270121484A009700E0074360
:10267000641C23780846203B98401042F7D120780C
:102680002E2817D1042007436078641C2A280CD117
:102690000E98641C02C800910E900BE000990A226B
:1026A000514330394018641C00902078014630397D
:1026B0000929F3D920780028D1D0642808D06928C6
:1026C00006D075281ED0109A0F9990476D1C5BE0BC
:1026D0000A200E99019001C90E91002802DA4042A9
:1026E0002D2102E0390504D52B216A461172012102
:1026F00003E0F90704D02021F7E70BAE0B910DE0C2
:102700000021FAE70A200E99019001C90E91F7E71E
:102710000199FDF70BFD3031761E31700028F7D19D
:1027200003A8801B20300190780701D5009801E0B4
:10273000012000900199884201DD401A00E000204C
:102740000027009006E002A8109AC05D0F999047FC
:102750006D1C7F1C0B988742F5DB04E0109A30203B
:102760000F9990476D1C0099481E00900029F5DCD8
:1027700005E03078109A761C0F9990476D1C0199EE
:10278000481E01900029F4DC641C65E7092801005B
:1027900013B5044B012269460348FEF7EBFB009892
:1027A0001CBD0000FFFF0000A4020020FDF71CFE7E
:1027B000FEF778FEFEF7C6FCFEF7F8FCFEF758FCC5
:1027C000002801D0012100E00021FEF789FCF5E797
:1027D00000000000000000000102030406070809D1
:1027E0000000000001020304082800080000002087
:1027F0001C00000020260008242800081C000020DF
:102800000C07000030260008000000000100000056
:10281000040000000000000000127A000000000028
:0428200000000000B4
:04000005080000C12E
:00000001FF
